:020000040800F2
:10000000C8090020710D0008610600086306000899
:10001000670600086B0600086F0600080000000075
:10002000000000000000000000000000730600084F
:100030007506000800000000770600087906000831
:100040008B0D00088B0D00088B0D00088B0D000830
:100050008B0D00088B0D00088B0D00088B0D000820
:100060008B0D00088B0D00088B0D00088B0D000810
:100070008B0D00088B0D00088B0D00088B0D000800
:100080008B0D00088B0D00088B0D00088B0D0008F0
:100090008B0D00088B0D00088B0D00088B0D0008E0
:1000A0008B0D00088B0D00088B0D00088B0D0008D0
:1000B0008B0D00088B0D00088B0D00088B0D0008C0
:1000C0008B0D00088B0D00088B0D00088B0D0008B0
:1000D0008B0D0008470A00088B0D0008AB0B0008C9
:1000E0008B0D00088B0D00088B0D00088B0D000890
:1000F0008B0D00088B0D00088B0D00088B0D000880
:100100008B0D00088B0D00088B0D00088B0D00086F
:100110008B0D00088B0D00088B0D00088B0D00085F
:100120008B0D00088B0D00088B0D00088B0D00084F
:1001300000F002F800F03AF80AA090E8000C8244BF
:100140008344AAF10107DA4501D100F02FF8AFF29C
:10015000090EBAE80F0013F0010F18BFFB1A43F0A5
:10016000010318470C1A00002C1A0000103A24BF93
:1001700078C878C1FAD8520724BF30C830C144BF0C
:1001800004680C607047000000230024002500264E
:10019000103A28BF78C1FBD8520728BF30C148BFEA
:1001A0000B6070471FB51FBD10B510BD01F09AFC64
:1001B0001146FFF7F7FF00F07EF901F0CCFC03B425
:1001C000FFF7F2FF03BC00F0DBFB0000F0B585B0E9
:1001D00004460F4600200290039004900090019086
:1001E00000250026072F05DAD6A001F0D5FB002058
:1001F00005B0F0BD2078632875D160786D28FBD1FB
:10020000A0786428F8D1E0782328F5D100260425C9
:100210000FE0092E04DBCEA001F0BEFB0020E7E7D3
:100220002846691CCDB2225C3046711CCEB202A9B0
:100230000A54605D232801D0BD42EADB002002A9F8
:1002400088550026681CC5B20FE0052E04DBC4A04B
:1002500001F0A2FB0020CBE72846691CCDB2225C4E
:100260003046711CCEB20DF80020605D232801D00D
:10027000BD42EADB00200DF80600BDA102A801F096
:10028000BFFBF0B9BCA1684601F0BAFB38B9002049
:10029000BA490860BAA001F07FFB0120A8E7BBA122
:1002A000684601F0ADFB38B90120B4490860B8A038
:1002B00001F072FB01209BE7B8A001F06DFB00206C
:1002C00096E7B9A102A801F09BFBF8B9AAA168467C
:1002D00001F096FB40B90120B5490860B5A001F0D6
:1002E0005BFB012084E716E0A8A1684601F088FBCB
:1002F00038B90020AE490860B1A001F04DFB0120E3
:1003000076E7A6A001F048FB002071E7A3A001F06A
:1003100043FB00206CE7A1A001F03EFB002067E753
:10032000F0B58DB004460F4600250026182107A819
:1003300001F03EFB182101A801F03AFB092F02DA77
:1003400003200DB0F0BD20786C284DD160786F2867
:100350004AD1A078672847D1E078692844D120792C
:100360006E2841D1607923283ED1002606250CE075
:10037000142E01DB0220E4E72846691CCDB2225C82
:100380003046711CCEB207A90A54605D232801D003
:10039000BD42EDDB002007A988550026681CC5B2C8
:1003A0000CE0142E01DB0220CBE72846691CCDB2FD
:1003B000225C3046711CCEB201A90A54605D23282C
:1003C00001D0BD42EDDB002001A988557F4907A877
:1003D00001F016FB30B97E4901A801F011FB08B904
:1003E0000020AEE70120ACE70120AAE72DE9F041AB
:1003F0000446002500270026012C03D100F04AFB0B
:10040000074602E000F0F8FB0746002512E0012C49
:1004100004D100F046FB6F49485503E000F0F3FBC0
:100420006C494855701CC6B2FA2E01DB002603E069
:10043000681CC5B2BD42EADB00BF002E39D0012CDA
:1004400004D13146634800F0F5FB32E031466148A3
:1004500000F03EFB3DA001F09FFA5F4800780028C5
:1004600023D131465B48FFF75BFF30B901205A4981
:1004700008705AA001F090FA1BE031465548FFF78A
:100480004FFF022803D158A001F086FA11E031464F
:100490005048FFF745FF032803D158A001F07CFA2C
:1004A00007E062A001F078FA03E031464948FFF71F
:1004B0008DFEBDE8F08108B50020009000F0EEFB55
:1004C0004FF4A06000F074FC4FF4E13000F066FAE5
:1004D0004FF4E13000F014FB00F0C0F900F0E4F953
:1004E00000F0C0FB012032490C39086028E00120EF
:1004F000FFF77CFF0320FFF779FF002000F0EEF903
:1005000000909DF8000070B19DF80000012805D012
:10051000022807D1312000F0CDFA03E0332000F0AB
:100520007BFB00BF00BF22480C38006808B90120DF
:1005300000E000201E490C390860642000F0EBFB4D
:10054000D5E70000C3FCC1EEB9FDB6CC0D0A000032
:10055000646576696365B3ACB3A40D0A000000005E
:10056000737461747573B3ACB3A40D0A000000001A
:100570004C454431000000004F4E000094012342DE
:100580004C454431B4F2BFAA0D0A00004F46460064
:100590004C454431B9D8B1D50D0A0000C3FCC1EEB9
:1005A000B4EDCEF30D0A00004245455000000000B6
:1005B000A081214242454550B4F2BFAA0D0A000075
:1005C00042454550B9D8B1D50D0A000001000020C0
:1005D000160000206800002000000020B5C7C2BC43
:1005E000B3C9B9A60D0A0000D5CBBAC5BBF2C3DCAE
:1005F000C2EBB3ACB3A40D0A00000000C3FCC1EE13
:10060000B9FDB6CCA3ACC7EBB7A2CBCDC3FCC1EE52
:10061000226C6F67696E23D5CBBAC523C3DCC2EBEE
:100620002322B5C7C2BC0D0A00000000D5CBBAC555
:10063000BBF2C3DCC2EBB4EDCEF3A3ACC7EBB7A205
:10064000CBCDC3FCC1EE226C6F67696E23D5CBBAEC
:10065000C523C3DCC2EB2322B5C7C2BC0D0A000010
:10066000704700BFFEE700BFFEE700BFFEE700BF28
:10067000FEE7704770477047704700000CB50020D8
:10068000019000906C48006840F480306A4908602E
:1006900000BF6948006800F4003000900198401CD9
:1006A0000190009818B90198B0F5A06FF1D1624897
:1006B000006800F4003010B10120009001E000203B
:1006C00000900098012843D15C48006840F0100079
:1006D0005A4908600846006820F003000860084690
:1006E000006840F002000860534840685249486082
:1006F0000846406848600846406840F480604860AA
:100700000846406820F47C1048600846406840F481
:10071000E81048600846006840F08070086000BF3C
:100720004548006800F000700028F9D04248406851
:1007300020F00300404948600846406840F002004D
:10074000486000BF3C48406800F00C000828F9D120
:100750000CBD10B5FFF792FF10BD10B5364800680C
:1007600040F00100344908600846406834490840B8
:100770003149486008460068324908402E490860FF
:100780000846006820F4802008600846406820F48D
:10079000FE0048604FF41F008860FFF7DAFF4FF05B
:1007A00000602949086010BD10B50021002000221A
:1007B000214B5B6803F00C0121B1042906D0082904
:1007C00028D107E0214B224C236027E01F4B204C0F
:1007D000236023E0184B5B6803F47010164B5B68D2
:1007E00003F48032022303EB904022B9194B4343B8
:1007F000174C23600DE0104B5B6803F4003323B10A
:10080000144B4343124C236003E0104B4343104C02
:10081000236003E00D4B0E4C236000BF00BF064B6E
:100820005B68C3F303130C4CE15C094B1B68CB40C2
:10083000074C236010BD0000001002400020024061
:100840000000FFF8FFFFF6FE08ED00E000127A005E
:100850002C00002000093D003000002008B50121D7
:10086000482000F02FFE2020ADF8000010208DF869
:10087000030003208DF802006946094800F066FB7A
:100880002021074800F00FFC2020ADF80000694649
:10089000044800F05BFB2021024800F004FC08BD86
:1008A000000C01400018014008B50121442000F06F
:1008B00009FE1820ADF8000048208DF803006946B5
:1008C0002C4800F043FB0120ADF8000028208DF8F3
:1008D00003006946284800F039FB08BD10B50446FE
:1008E00014B10120254908702448007858B310211C
:1008F000204800F0BEFB50B108211E4800F0B9FBB3
:1009000028B101211C4800F0B4FB01281BD10A20AA
:1009100000F001FA0020194908701021154800F074
:10092000A8FB08B9012010BD0821124800F0A1FB66
:1009300008B90220F7E701210F4800F09AFB0128CF
:1009400015D10320EFE710210A4800F092FB01289F
:100950000DD10821074800F08CFB012807D10121A7
:10096000054800F086FB10B90120044908700020FA
:10097000D9E70000001801400008014040000020B5
:1009800000BF704700BF594A128802F04002002A97
:10099000F9D0C2B2554B1B1D1A80704710B586B0F6
:1009A00004460121042000F08DFD0121880300F0A0
:1009B00089FD4FF40070ADF8140018208DF8170071
:1009C00003208DF8160005A9494800F0BFFA4FF43E
:1009D0008060ADF8140004208DF8170005A9444884
:1009E00000F0B4FA25208DF8000001208DF80100F8
:1009F00000208DF8020001208DF80300684600F009
:100A0000DCF901940020ADF80800ADF80A00ADF85B
:100A10000C00ADF810000C20ADF80E0001A9334811
:100A200000F0F7FD012240F22551304800F089FE28
:100A300001212E4800F079FE00202E4908702E4931
:100A4000087006B010BD10B540F22551274800F0DF
:100A50005DFFF0B12848007826490978884204D122
:100A6000002025490870234908702048001D00888F
:100A70002249214A127888541F480078401C1E4998
:100A8000087008460078FA2803DB0020087019492E
:100A9000087010BD1848007816490978401AC0B28D
:100AA0007047144801780078401C124A10701348AF
:100AB000405C704710B5044621460C4800F0A2FE89
:100AC00000BF0A48008800F080000028F9D010BD5F
:100AD00070B505460E46002404E0285DFFF7EAFFE6
:100AE000601CC4B2B442F8DB70BD000000380140A5
:100AF000000801404400002045000020670100205C
:100B000010B586B004460121082000F0DBFC01216D
:100B1000880400F0E4FC4FF48060ADF81400182065
:100B20008DF8170003208DF8160005A9484800F03D
:100B30000DFA4FF40060ADF8140004208DF8170092
:100B400005A9434800F002FA27208DF80000012093
:100B50008DF8010000208DF8020001208DF80300BF
:100B6000684600F02AF901940020ADF80800ADF8BD
:100B70000A00ADF80C00ADF810000C20ADF80E0026
:100B800001A9344800F045FD012240F225513148C9
:100B900000F0D7FD01212F4800F0C7FD00202E49AD
:100BA00008702E49087006B010BD10B540F22551EE
:100BB000284800F0ABFEF0B12848007826490978B3
:100BC000884204D100202549087023490870214833
:100BD000001D00882249214A127888541F48007855
:100BE000401C1E49087008460078FA2803DB0020E4
:100BF00008701949087010BD18480078164909781E
:100C0000401AC0B27047144801780078401C124A5C
:100C100010701348405C704710B5044621460D48DB
:100C200000F0F0FD00BF0B48008800F080000028B5
:100C3000F9D010BD70B505460E46002404E0285DCD
:100C4000FFF7EAFF601CC4B2B442F8DB70BD0000DD
:100C5000000C0140004800404C0000204D000020E6
:100C60006602002008B50121082000F02BFC4FF49B
:100C70008070ADF8000010208DF8030003208DF87F
:100C800002006946044800F061F94FF4807102489F
:100C900000F00BFA08BD0000000C014010B56FF029
:100CA000040000F0D4F82E4800682E49B0FBF1F0A3
:100CB0002D4908700846007800EB4001C1EBC010D8
:100CC0004FF6FF7101EAC0002849088010BD0146B7
:100CD000254A12784A434FF0E0235A6100229A6174
:100CE0001A46126942F001021A6100BF4FF0E02279
:100CF000106900F001021AB100F48032002AF5D028
:100D00004FF0E022126922F001024FF0E0231A6155
:100D100000229A6170470146144A12884A434FF0F4
:100D2000E0235A6100229A611A46126942F00102D8
:100D30001A6100BF4FF0E022106900F001021AB101
:100D400000F48032002AF5D04FF0E022126922F040
:100D500001024FF0E0231A6100229A6170470000FF
:100D60002C00002000127A004E00002050000020CD
:100D70000948804709480047FEE7FEE7FEE7FEE72F
:100D8000FEE7FEE7FEE7FEE7FEE7FEE7044805496B
:100D9000054A064B704700005B0700083101000858
:100DA000C8030020C8090020C8050020C80500208D
:100DB00031490143314A1160704770B50021002369
:100DC0000F22C47804B32D4C246804F4E064C4F505
:100DD000E064210AC1F10403CA40447804FA03F133
:100DE0008478144021430901254C0678A1550478E4
:100DF00004F01F050124AC4005786D11AD0005F12C
:100E0000E025C5F8004109E0047804F01F0501243D
:100E1000AC401C4D0678761145F8264070BD1A4A44
:100E20000A400243154B1B1F1A60704739B1134A21
:100E3000121D12680243114B1B1D1A6006E00F4A77
:100E4000121D126882430D4B1B1D1A607047042847
:100E500008D14FF0E021096941F004014FF0E02290
:100E6000116107E04FF0E021096921F004014FF022
:100E7000E0221161704700000000FA050CED00E06F
:100E800000E400E080E100E080FFFF1F10B50446B1
:100E9000CC48844208D10121042000F02DFB002120
:100EA000042000F029FB46E0C748844208D1012114
:100EB000082000F021FB0021082000F01DFB3AE093
:100EC000C248844208D10121102000F015FB002106
:100ED000102000F011FB2EE0BD48844208D1012112
:100EE000202000F009FB0021202000F005FB22E07B
:100EF000B848844208D10121402000F0FDFA0021C9
:100F0000402000F0F9FA16E0B348844208D10121EC
:100F1000802000F0F1FA0021802000F0EDFA0AE0D4
:100F2000AE48844207D10121801500F0E5FA002186
:100F3000A01500F0E1FA10BD10B50121084600F03F
:100F4000DBFA0021012000F0D7FA10BD2DE9F041B5
:100F5000024600250026002000230024002791F8E7
:100F600003C00CF00F0591F803C00CF0100CBCF19D
:100F7000000F03D091F802C04CEA050591F800C0BB
:100F8000BCF1000F31D0146800202BE04FF0010CB1
:100F90000CFA00F3B1F800C00CEA03069E4220D11F
:100FA00083004FF00F0C0CFA03F7BC4305FA03FC67
:100FB0004CEA040491F803C0BCF1280F06D14FF0AD
:100FC000010C0CFA00FCC2F814C00AE091F803C04E
:100FD000BCF1480F05D14FF0010C0CFA00FCC2F82F
:100FE00010C0401C0828D1D31460B1F800C0BCF177
:100FF000FF0F34DD546800202EE000F1080C4FF0A4
:10100000010808FA0CF3B1F800C00CEA03069E428E
:1010100021D183004FF00F0C0CFA03F7BC4305FA03
:1010200003FC4CEA040491F803C0BCF1280F05D17D
:1010300000F1080C08FA0CF8C2F8148091F803C00B
:10104000BCF1480F07D100F1080C4FF0010808FA75
:101050000CF8C2F81080401C0828CED35460BDE8BC
:10106000F0814FF6FF710180022181700421C1706F
:1010700070470246002093680B400BB1012000E04E
:10108000002070470146886880B270470246002001
:10109000D3680B400BB1012000E0002070470146EF
:1010A000C86880B2704701617047416170470AB1FA
:1010B000016100E041617047C16070474FF48032C8
:1010C0000A43826181618261826982697047024656
:1010D0000020434B18684FF68073184040EA021016
:1010E00008433F4B186070473E49C8617047F0B5F0
:1010F0000A46002300240021002500F00046B6F136
:10110000004F02D1364EF16901E0354E7168C0F3EF
:10111000034583B200F44016B6F5401F08D121F014
:1011200070612F4E766826F070662D4F7E6012E05B
:1011300000F48016B6F5801F06D1032606FA05F4E2
:10114000A14341F0706106E0460D360103FA06F650
:10115000B14341F0706122B1460D360103FA06F643
:10116000314300F00046B6F1004F02D11C4EF16150
:1011700001E01B4E7160F0BD30B500228B071C0FE3
:101180000F2303FA04F2164B08338C1053F8243063
:101190009343134C08348D1044F8253023468C10AB
:1011A00053F824308C07240F00FA04F423430C4C2A
:1011B00008348D1044F8253030BD0A49DC31086010
:1011C0007047000000080140000C01400010014081
:1011D0000014014000180140001C014000200140A3
:1011E0000000014000002042DF48006840F001009C
:1011F000DD49086008464068DC490840DA49486033
:1012000008460068DA490840D7490860084600687F
:1012100020F4802008600846406820F4FE00486002
:101220004FF41F0088607047CF49096821F480316E
:10123000CD4A11601146096821F480211160B0F592
:10124000803F03D0B0F5802F0ED106E0C649096873
:1012500041F48031C44A116007E0C349096841F490
:10126000A021C14A116000E000BF00BF704710B567
:1012700001460022002300204A11012A02D1BA4C63
:10128000236806E0022A02D1B74C236A01E0B64C7B
:10129000636A01F01F02012494401C400CB101203C
:1012A00000E0002010BD38B500200090002400258B
:1012B00000BF3120FFF7DBFF05460098401C00907F
:1012C0000098B0F5A06F01D0002DF2D03120FFF7CB
:1012D000CEFF08B1012400E00024204638BD0146BD
:1012E0000020A14A106820F0F80040EAC100106018
:1012F0007047A04908607047024600209A4B586822
:1013000020F47C1042EA01031843974B5860704761
:1013100098490866704701460020934A506820F0BB
:1013200003000843506070478F48406800F00C008D
:101330007047014600208C4A506820F0F0000843B6
:101340005060704701460020874A506820F4E060F2
:1013500008435060704701460020834A506820F4DB
:10136000605040EAC1005060704729B17E4A527A0D
:1013700002437D4B5A7204E07B4A527A82437A4B95
:101380005A7270477B49D831086070470146002087
:10139000754A506820F4404008435060704700216F
:1013A000714A20321170704A82F82010012802D050
:1013B00004280AD104E001216B4A2032117005E0B3
:1013C0000521694A2032117000E000BF00BF70475C
:1013D0006949086070476449096A0143624A1162B9
:1013E0007047654944390860704730B500210022D4
:1013F000002400235C4D6D6805F00C0121B1042927
:1014000005D0082923D105E05C4D056022E05B4D45
:1014100005601FE0544D6D6805F47012524D6D6803
:1014200005F48034022505EB92421CB9544D554316
:1014300005600BE04C4D6D6805F400351DB1504D55
:101440005543056002E04D4D5543056002E04B4DAC
:10145000056000BF00BF444D6D6805F0F00109094B
:10146000484D6B5C0568DD4045603F4D6D6805F497
:10147000E061090A434D6B5C4568DD4085603A4D8B
:101480006D6805F46051C90A3E4D6B5C4568DD40EE
:10149000C560354D6D6805F44041890B3A4D6B5C74
:1014A000C568B5FBF3F5056130BD29B12E4A526917
:1014B00002432D4B5A6104E02B4A526982432A4B66
:1014C0005A61704729B1284A92690243264B9A61B2
:1014D00004E0254A92698243234B9A61704729B1FF
:1014E000214AD2690243204BDA6104E01E4AD269E4
:1014F00082431D4BDA61704729B11B4AD26802430F
:10150000194BDA6004E0184AD2688243164BDA605D
:10151000704729B1144A12690243134B1A6104E05F
:10152000114A12698243104B1A61704712494039BF
:10153000086070470F49C86470470B49C87170470D
:101540000948406A40F08070074948627047014688
:101550000020054A92680A400AB1012000E00020FC
:101560007047014988727047001002400000FFF880
:10157000FFFFF6FE000042428004424200127A0061
:1015800000093D00520000206200002010B5044612
:10159000FB48844209D101218803FFF7ADFF0021F8
:1015A0004FF48040FFF7A8FF32E0F648844209D1AB
:1015B00001214804FFF7ADFF00214FF40030FFF791
:1015C000A8FF25E0F048844209D101218804FFF7F3
:1015D000A0FF00214FF48020FFF79BFF18E0EB48AD
:1015E000844209D10121C804FFF793FF00214FF481
:1015F0000020FFF78EFF0BE0E548844208D101216F
:101600000805FFF786FF00214FF48010FFF781FFE8
:1016100010BD2DE9F04786B005460E460024A246CF
:1016200000BFA1460027B08900B100BF2F462C8A19
:101630004CF6FF700440F08804432C82AC894EF6CF
:10164000F3100440B088318908437189084304438A
:10165000AC81AC8A4FF6FF400440B0890443AC82B1
:1016600001A8FFF7C2FEC648874202D1DDF810A0EC
:1016700001E0DDF80CA0A88900F4004040B10AEBBD
:10168000CA0000EB0A1031684900B0FBF1F807E02E
:101690000AEBCA0000EB0A1031688900B0FBF1F8D0
:1016A0006420B8FBF0F004012009642101FB1089DB
:1016B000A88900F4004040B1322000EBC900B0FB23
:1016C000F1F000F00700044308E0322000EB0910BD
:1016D0006421B0FBF1F000F00F0004432C8106B050
:1016E000BDE8F0874FF41651016000218180C18070
:1016F00001810C21418100218181704710B5024692
:101700000020108A4FF2FF0318400B884C882343B7
:101710008C882343CC8823431843108210BD0021BA
:10172000018041808180C180704721B1828942F46B
:101730000052828104E082894DF6FF731A40828153
:101740007047F0B50346002400260025002040F62F
:101750006A17B94200D100BF1846C1F3421401F024
:101760001F06012707FA06F5012C01D10C3004E011
:10177000022C01D1103000E014301AB107682F4359
:10178000076002E00768AF430760F0BD1AB1838AC3
:101790000B43838202E0838A8B4383827047028AF1
:1017A0004FF6F0731A400282028A0A43028270479F
:1017B00082894FF2FF731A40828182890A438281B3
:1017C000704721B1828942F00202828104E082895D
:1017D0004FF6FD731A4082817047028A4FF6DF731D
:1017E0001A400282028A0A430282704721B1028AA9
:1017F00042F48042028204E0028A4BF6FF731A40F0
:1018000002827047C1F308028280704701468888CF
:10181000C0F308007047818941F001018181704760
:10182000028BD2B20283028B42EA0122028370470A
:10183000028B02F47F420283028B0A4302837047C9
:1018400021B1828A42F02002828204E0828A4FF62D
:10185000DF731A408282704721B1828A42F01002FF
:10186000828204E0828A4FF6EF731A4082827047C8
:1018700021B1828A42F00802828204E0828A4FF615
:10188000F7731A408282704721B1828942F4004284
:10189000828103E08289C2F30E028281704721B106
:1018A000828A42F40062828204E0828A4FF2FF73ED
:1018B0001A4082827047828A4FF6FB731A408282F6
:1018C000828A0A438282704721B1828A42F00202F0
:1018D000828204E0828A4FF6FD731A40828270474A
:1018E00002460020B1F5007F00D100BF13880B40F5
:1018F0000BB1012000E00020704701F40072B2F546
:10190000007F00D100BFCA430280704770B5024615
:10191000002400230025002040F66A16B14200D1C1
:1019200000BFC1F3421501F01F03012606FA03F3BD
:10193000012D02D19689334006E0022D02D1168A8C
:10194000334001E0968A33400C12012606FA04F473
:101950001688344013B10CB1012000E0002070BDA6
:1019600010B50022002340F66A14A14200D100BF46
:101970000A1201249440A3B2DC43048010BD00008D
:10198000003801400044004000480040004C004046
:1019900000500040704700000FB4044910B503AA7E
:1019A000029800F071F810BC5DF814FB48000020AC
:1019B0004FF0000200B5134694469646203922BFE8
:1019C000A0E80C50A0E80C50B1F12001BFF4F7AF33
:1019D000090728BFA0E80C5048BF0CC05DF804EB15
:1019E000890028BF40F8042B08BF704748BF20F883
:1019F000022B11F0804F18BF00F8012B7047000038
:101A00004FF0013C50F8042B51F8043B9A4221D18D
:101A1000A2EB0C03934313EACC1317D150F8042B19
:101A200051F8043B9A4215D1A2EB0C03934313EAFD
:101A3000CC130BD150F8042B51F8043B9A4209D136
:101A4000A2EB0C03934313EACC13DBD04FF000005E
:101A5000704700BFD01A01BAB1FA81F101F0180144
:101A600022FA01F0CB40C1F12001DBB2C0B2C01AB2
:101A70002CFA01F3D11A914311EAC311E6D1704750
:101A80007047704770477047074B70B50D467B44F1
:101A900000F011F80446284600F020F810B14FF08D
:101AA000FF3070BD204670BDF3EEFFFF01694A1C98
:101AB00002610878704700B58FB0CDE9013100218F
:101AC000059105497944CDE903101146684600F0B7
:101AD0002EF80FB000BD0000E5FFFFFF007B00F017
:101AE00080007047754600F03FF8AE460500694635
:101AF000534620F00700854618B020B5FFF746F999
:101B0000BDE820404FF000064FF000074FF00008FE
:101B10004FF0000B21F00701AC46ACE8C009ACE87F
:101B2000C009ACE8C009ACE8C0098D4670472DE992
:101B3000F04106460024D6E90170F568804630463B
:101B400003E04146B847641C3046A8470028F8D156
:101B50002046BDE8F08110B50446AFF30080204672
:101B6000BDE81040FEF72BBB00487047680300201B
:101B7000901B000800000020680000006C010008B5
:101B8000F81B0008680000206009000088010008B8
:101B90000061646D696E000000000000000000003C
:101BA00000000000000061646D696E00000000002C
:101BB00000000000000000000000000000A24A0435
:101BC00000000000000000000102030406070809ED
:101BD0000100000000000000000000000000000004
:101BE00000000000000001020304010203040607D4
:081BF0000809020406080000C8
:0400000508000131BD
:00000001FF
